:0400000080314528DE
:10000800803120007F08F1002100111E0C280D28E6
:1000180037282000111E1128122837287A087B0655
:100028000319172818282C287B08A03E860087016A
:10003800010823009A000130F0007008FB07203007
:100048007B02031C282829283728FB013728372852
:100058007B087A06031D312832283728210011121F
:100068003728372837282000911C3B283C2842286D
:1000780091100130E5070030E63D42287108FF0085
:10008800090088018A313F2AF030210099000330A5
:10009800950023008C01203020008C003F30240084
:1000A8008C001F3021008C008B019D0122009701DC
:1000B80084309D00823023009E009D011E159F11F3
:1000C8001E1210309B009C019E169D171D162100C4
:1000D8009112111220009112111223001F121F10E9
:1000E800FA01FB018B170B178931FA218031053092
:1000F8002000E1000F30E000F430DF00DF0B822841
:10010800E00B8228E10B82288931E62180318D318C
:100118008725803152302000E1002C30E0004F303C
:10012800DF00DF0B9528E00B9528E10B95289C282C
:10013800A430F5008330F6008A3185228031893178
:10014800EE2180318B31082380318D31F7258031C4
:10015800230019082000DF005F08E800FF30DF00F7
:100168005F08E800B7282000911EBB28BC28392961
:10017800230019082000DF005F08E2006208473A00
:100188000319C728C828D5286208673A0319CD2853
:10019800CE28D52862080D3A031DD328D428D9289B
:1001A800D528E7010314E70D392962081B3A031D16
:1001B800DE28DF28E128E70139296208493A0319CE
:1001C800E628E728EE286208693A031DEC28ED289E
:1001D800F328EE286430DF005F08E7003929620859
:1001E800643A031DF828F928FE280230DF005F086A
:1001F800E70039296208683A0319032904290B29F9
:100208006208483A031D09290A2910290B290430D4
:10021800DF005F08E7003929E808031D14291529BC
:1002280039296208563A03191A291B292229620812
:10023800763A031D20292129262922298D3187254F
:1002480080313929200062083F3A031D2C292D29C5
:1002580039298931E621803139293929392939293A
:10026800392939293929392939292000680867069F
:1002780003193F2940298C296708DF005F08E80037
:100288007F292330F5008430F6008A3185228031B9
:100298008C291930F5008430F6008A3185228031A6
:1002A80000302100D7000030D6000030D5000030E3
:1002B800D4000030CB000030CA000030C900003044
:1002C800C800FF302000E300FF30E4008C29DC3058
:1002D800F5008330F6008A3185228031CC308631B2
:1002E800AC2680310030F5008430F6008A31852252
:1002F80080318C298C2920006808003A0319452987
:10030800013A03194D29053A03196B298C298C29BF
:1003180020006808023A031D92299329CF299629BB
:10032800962996298A3129228031003A03199D2974
:100338009E2996299F298D31302580318431522478
:1003480080318B313223803186310C268031003A5E
:100358000319AF29B029BB2921004608E83E20002F
:10036800E30003302100473D2000E400BB292100C1
:10037800470820006402031DC52921004608200003
:1003880063020318C829C929B7280430DF005F08A9
:10039800E700B728B7286808013A031DD429D529EA
:1003A800F1298B13E501E6018B178D31302580315A
:1003B80085316B258031003A0319E329E429F129B5
:1003C8008431522480318B31322380310230200035
:1003D800DF005F08E700B728F12920006808643AC1
:1003E800031DF729F829B7288D3130258031C03011
:1003F8008631AC268031B728B728B7288031452800
:100408002000B2002908B0002808AF002708AE0075
:100418002608AD000F2A2A08F2002B08F300890DE0
:10042800893B8909F400F5003008F9002F08F80025
:100438002E08F7002D08F6008231972282317508C0
:100448002000B0007408AF007308AE007208AD0059
:100458000130AC002C08B20730082F042E042D04FC
:10046800031D372A382A0F2A392A320886008701BD
:1004780081010130B202402A2A08F2002B08F30059
:10048800890D893B8909F400F5002908F900280835
:10049800F8002708F7002608F6008C31DD248231A1
:1004A80072082000AC002C08B1002A08F2002B08C2
:1004B800F300890D893B8909F400F5002908F90042
:1004C8002808F8002708F7002608F6008231972246
:1004D800823175082000A9007408A8007308A700D5
:1004E8007208A6000A303102031C7B2A7C2A802A63
:1004F8000730AC002C08B1073030AC002C08B1072D
:100508003108AC003208860087012C0881000130D0
:10051800B2022908280427042604031D942A952AD0
:10052800402A962A080000302000A4000030A300CA
:100538000030A2000030A10075087404730472042E
:100548000319A72AA82AF02AA5010314A50DB82A79
:100558000130F235F30DF40DF50D890BAD2A01309C
:10056800A0002008A507B82AF51FBB2ABC2AAC2A78
:10057800BE2ABE2A0130A135A20DA30DA40D890BF8
:10058800BF2A75087902031DD32A74087802031D4F
:10059800D32A73087702031DD32A72087602031C34
:1005A800D62AD72AE12A7208F6027308F73B74089C
:1005B800F83B7508F93B2114E12A0130F536F40CB3
:1005C800F30CF20C890BE22A0130A502031DED2A77
:1005D800EE2ABE2AF02AF02A2408F5002308F4009F
:1005E8002208F3002108F200F92A080064008001BB
:1005F8000131890BFB2A003400341D341E341F34AA
:100608002034213422342334243425342634273426
:10061800283429342A342B342C342D342E342F34D6
:100628003034313432343334343435343734383484
:1006380063346434653466346734683469346A34DE
:100648001A341D341E341F34203421342234233408
:100658002434253426342734283429342A342B34B6
:100668002C342D342E342F34303431343234333466
:100678003434353463346434653466346734683408
:1006880069346A34373438347434FF3400340C3401
:100698000034043449343234433420345234653419
:1006A80061346434203454346534733474342034FD
:1006B8005034613473347334653464342C342034E6
:1006C8004D345034553436343034353430342034A5
:1006D80041346434643472346534733473343A3472
:1006E800203430347834363438340D340A34003415
:1006F8004534523452344F3452343A342034493425
:100708003234433420345234653461346434203410
:100718005434653473347434203446346134693461
:100728006C34653464342C342034533474346F346A
:100738007034703469346E3467340D340A340034DC
:10074800543465347334743420344D34503455344F
:100758003634303435343034203463346F346D34C7
:100768006D3475346E346934633461347434693487
:100778006F346E340A340D3400340D340A344D3479
:1007880050345534363430343534303420345334DE
:100798006534743475347034203443346F346D34B4
:1007A80070346C346534743465340D340A34003470
:1007B8002A342A342A342A342A340D340A344D345B
:1007C8006134783469346D3475346D342034503480
:1007D800653461346B342034003447344334723424
:1007E8006134733468342034563431342E34303420
:1007F80031340D340A3400342A342A342A342A3461
:100808002A340D340A3444344F344E3445340D34CC
:100818000A3400342034543469346D34653428344F
:100828006D34733429343D3400340D340A34523471
:1008380045344134443459340D340A3400340D34C9
:100848000A34493444344C3445340D340A340034C1
:1008580056344434443420343D3420340034203475
:100868002034473478343D3400342034203447343D
:1008780079343D3400342034203447347A343D34DC
:1008880000342034203447343D34003456340D3499
:100898000A3400342D342D342D3400342100C11B8A
:1008A800562C572C612C41082000AD01AD072100C2
:1008B80040082000AC01AC07712C21004009200041
:1008C800A400210041092000A500A40A0319A50AD3
:1008D8002408AC002508AD00712C2C08B2002D08A6
:1008E800B300890D893B8909B400B5002100C31BF9
:1008F8007E2C7F2C892C43082000AF01AF072100F4
:1009080042082000AE01AE07992C210042092000C0
:10091800A400210043092000A500A40A0319A50A80
:100928002408AE002508AF00992C2E08B6002F0821
:10093800B700890D893B8909B800B9002100C51B9A
:10094800A62CA72CB12C45082000B101B107210025
:1009580044082000B001B007C12C21004409200040
:10096800A400210045092000A500A40A0319A50A2E
:100978002408B0002508B100C12C3008BA0031089D
:10098800BB00890D893B8909BC00BD003508F5000D
:100998003408F4003308F3003208F2003508F9008F
:1009A8003408F8003308F7003208F6008B31972333
:1009B800843175082000B5007408B4007308B300CA
:1009C8007208B2003908F5003808F4003708F30057
:1009D8003608F2003908F9003808F8003708F70037
:1009E8003608F6008B319723843175082000B9004A
:1009F8007408B8007308B7007208B6003D08F5001F
:100A08003C08F4003B08F3003A08F2003D08F900FE
:100A18003C08F8003B08F7003A08F6008B319723AA
:100A2800843175082000BD007408BC007308BB0041
:100A38007208BA003A08A4003B08A5003C08A600C2
:100A48003D08A70032083607A8003308373DA9003B
:100A58003408383DAA003508393DAB002808A407FA
:100A68002908A53D2A08A63D2B08A73D27082100EF
:100A7800CB00200026082100CA00200025082100FC
:100A8800C900200024082100C8004B085702031D94
:100A9800572D4A085602031D572D49085502031DB4
:100AA800572D4808540203185A2D5B2D6A2DC03063
:100AB800860000308700CC308400003085000C3080
:100AC800FF0016001A00FF0B652D6A2D0800210093
:100AD800C11B6F2D702D7A2D41082000A101A1079F
:100AE800210040082000A001A007882D210040090E
:100AF800F2004109F300F20A0319F30A7208200010
:100B0800A0007308A100882D4C3084008330850034
:100B1800003FF200013FF3002108803AF400730817
:100B2800803A7402031D9A2D7208200203189D2D25
:100B38009E2D092E2100C31BA22DA32DAD2D4308E8
:100B48002000A301A307210042082000A201A20758
:100B5800BB2D21004209F2004309F300F20A0319F0
:100B6800F30A72082000A2007308A300BB2D4C30C2
:100B7800840083308500003FF200013FF300230822
:100B8800803AF4007308803A7402031DCD2D720870
:100B980022020318D02DD12D092E2100C51BD52DD9
:100BA800D62DE02D45082000A501A5072100440801
:100BB8002000A401A407EE2D21004409F2004509F4
:100BC800F300F20A0319F30A72082000A40073085C
:100BD800A500EE2D4C30840083308500003FF200E4
:100BE800013FF3002508803AF4007308803A740244
:100BF800031D002E720824020318032E042E092E4A
:100C080001300B2E0B2E092E092E00300B2E08005A
:100C18002100C11B102E112E1B2E41082000A101FE
:100C2800A107210040082000A001A007292E2100CB
:100C38004009F2004109F300F20A0319F30A7208A5
:100C48002000A0007308A100292E4A3084008330B8
:100C58008500003FF200013FF3007308803AF4007A
:100C68002108803A7402031D3B2E20087202031CDF
:100C78003E2E3F2EA62E2100C31B432E442E4E2E61
:100C880043082000A301A307210042082000A20175
:100C9800A2075C2E21004209F2004309F300F20A80
:100CA8000319F30A72082000A2007308A3005C2E3F
:100CB8004A30840083308500003FF200013FF30092
:100CC8007308803AF4002308803A7402031D6E2EDC
:100CD80022087202031C712E722EA62E2100C51B3B
:100CE800762E772E812E45082000A501A507210024
:100CF80044082000A401A4078F2E21004409F20013
:100D08004509F300F20A0319F30A72082000A40047
:100D18007308A5008F2E4A30840083308500003F79
:100D2800F200013FF3007308803AF4002508803A86
:100D38007402031DA12E240872020318A42EA52EE6
:100D4800A92EA62E0130AB2EAB2E0030AB2E0800FC
:100D58002000DE008D3130258631843152248631E1
:100D68000E30F5008430F6008A3185228631200065
:100D78005E08063E86008701403FA900413FAA0061
:100D88008A31552286313330F5008430F6008A31B5
:100D98008522863120005E0886008701403FDA0000
:100DA800413FDB005A08D6005B08D700890D893B14
:100DB8008909D800D9008C31522486313930F500A0
:100DC8008430F6008A318522863120005E08023E92
:100DD80086008701403FDA00413FDB005A08D60011
:100DE8005B08D700890D893B8909D800D9008C3167
:100DF800522486313F30F5008430F6008A3185224E
:100E0800863120005E08043E86008701403FDA00F4
:100E1800413FDB005A08D6005B08D700890D893BA3
:100E28008909D800D9008C315224863120005E0807
:100E3800083E86008701403FF200413FF300423FF1
:100E4800F400433FF5008F316E2786317308200088
:100E5800DD01DD077208DC01DC074530F500843070
:100E6800F6008A318522863120005C08D6005D08AC
:100E7800D700D801D9018C3152248631FD30F500D4
:100E88008330F6008A318522863108002000A201CD
:100E9800F51F4F2F502F5F2FF209F309F409F509B9
:100EA800F20A0319F30A0319F40A0319F50AA2014D
:100EB8000314A20D5F2FF91F622F632F732FF609FA
:100EC800F709F809F909F60A0319F70A0319F80ADC
:100ED8000319F90A0130A0002008A206732F003078
:100EE800A6000030A5000030A4000030A30075085B
:100EF8007404730472040319822F832FCB2FA1016A
:100F08000314A10D932F0130F235F30DF40DF50DF7
:100F1800890B882F0130A0002008A107932FF51F07
:100F2800962F972F872F992F992F0130A335A40D2E
:100F3800A50DA60D890B9A2F75087902031DAE2FF2
:100F480074087802031DAE2F73087702031DAE2FB5
:100F580072087602031CB12FB22FBC2F7208F6025A
:100F68007308F73B7408F83B7508F93B2314BC2F4A
:100F78000130F536F40CF30CF20C890BBD2F01305F
:100F8800A102031DC82FC92F992FCB2FCB2F2208C1
:100F9800031DCF2FDB2FA309A409A509A609A30ABE
:100FA8000319A40A0319A50A0319A60ADB2F2608A0
:100FB800F5002508F4002408F3002308F200E42FC4
:100FC8000800F6000F30F5007508F6050A307602BD
:100FD800031CEF2FF02FF52F3730F5007508F607B3
:100FE800FA2F3030F5007508F607FA2F76088A319F
:080FF800E22287310800FF34FA
:101398008A31092289312400161408008A31092269
:1013A80089312400961408008A31092289312400E1
:1013B80016150800F2008A310922893172082400C2
:1013C80091000800F130F5008330F6008A3185225B
:1013D8008931080021008C140C1528302400950050
:1013E800960113309200C0309400080020009C0140
:1013F8007D309B009A0107309C009110E501E601C1
:10140800210091140B178B1708000B2A0B2A2400B4
:1014180016081F39031D112A122A0B2A1419152A16
:10142800162A0B2A172A0800F40074080907F30083
:101438007308F5007208F3007308F5078A3109226A
:101448008A3175082400910008003A302000A10074
:101458002108F6002330A2002208F700F80103143F
:10146800F80D68308C310F248A31003020002318A1
:1014780001303E2A0800FA01FB01E301E401E5011D
:10148800E601E701A0308400003085003830823161
:10149800FA228A318731FF278A31E800200080311B
:1014A800482820002A08A101A1072908A001A007AF
:1014B8000A30A2000030A3002B308E3169268A3111
:1014C8002B30F5000030F6008A3185228A31080079
:1014D8002000A200A001A1018931CC218A31F201AA
:1014E800200022088A3118228A3176088931DE21C3
:1014F8008A3177088931DE218A318931D8218A31C8
:101508000800932A750884007608850000088A3147
:10151800E2228A310130F5070030F63D932A75083A
:1015280084007608850000080038031D9C2A9D2A3F
:10153800862A9E2A0800F3008A3109228A3124006B
:1015480096158A3109228A3124001108F20072089E
:10155800F4008A3109228A317308031DB42AB72A94
:1015680024009612B92A2400961616167408BC2A66
:10157800080078082000A1007708A0000C30A136E8
:10158800A00C890BC32A20088731E5278A317808FF
:101598008731E5278A3178082000A1007708A00064
:1015A8000430A136A00C890BD52A20088731E527FD
:1015B8008A3177088731E5278A310800F3007A08ED
:1015C800013EF2007208F40020307402031CED2A78
:1015D800EE2AF22AF401F22AF22AF22A74087B0689
:1015E8000319F72AF82AF22AF92A7308F2007A0866
:1015F800A03E86008701720881007408F200720814
:10160800FA002100111608002000A3017530A1007E
:101618002108F6002330A2002208F700F80103147D
:10162800F80D68308C310F248B3120002308683A7C
:10163800031D1F2B202B292B4E30F5008330F6007D
:101648008A3185228B31312B312B7C30F500833068
:10165800F6008A3185228B31312B0800210047089A
:10166800F801F8074608F701F7078A31BD228B31E0
:1016780021004108F801F8074008F701F7078A3107
:10168800BD228B3121004308F801F8074208F70111
:10169800F7078A31BD228B3121004508F801F80788
:1016A8004408F701F7078A31BD228B31FD30F50078
:1016B8008330F6008A3185228B3108002000BB0078
:1016C8003B08B9003908BA00B61F6B2B6C2B832B6B
:1016D8002D30B9003B0886008701390881000130A8
:1016E800B9003908BB07B309B409B509B609B30A83
:1016F8000319B40A0319B50A0319B60A832B360865
:10170800A9003508A8003408A7003308A60038083F
:10171800AB01AB073708AA01AA073B0882310422AC
:101728008B31962B080000302000A3000030A20067
:101738000030A1000030A000A12B721CA42BA52B07
:10174800AF2B76082000A0077708A13D7808A23DB6
:101758007908A33DAF2B0130F635F70DF80DF90DDB
:10176800890BB02B0130F536F40CF30CF20C890B15
:10177800B72B7508740473047204031DC42BC52B9E
:10178800A12BC62B20002308F5002208F40021080D
:10179800F3002008F200D02B080073087204031924
:1017A800D62BD72B072CF7010314F70DE52B0130A7
:1017B800F235F30D890BDC2B0130F6007608F707BC
:1017C800E52BF31FE82BE92BDB2BEB2BEB2B73081B
:1017D8007502031DF12B72087402031CF42BF52B00
:1017E800FA2B7208F4027308F53BFA2B0130F33632
:1017F800F20C890BFB2B0130F702031D042C052C7E
:10180800EB2B072C072C7508F301F3077408F2017A
:10181800F2070E2C08002000A0008931CC218C3161
:10182800F201200020088A3118228C31760889318B
:10183800DE218C318931D2218C31F2010314F20D71
:10184800200020088A3118228C31392C01308A3145
:101858009F228C31F900770886008701790881007A
:101868000130F9007908F707392C0130F802031D17
:101878003E2C3F2C2A2C402C00308A319F228C3160
:10188800F900770886008701790881000130F9009E
:101898007908F7078931D8218C3108000030F50024
:1018A8000030F4000630F3004030F2002000590800
:1018B800F9005808F8005708F7005608F6008B3169
:1018C80097238C3175082000D9007408D800730854
:1018D800D7007208D6000030F5000030F4008030E0
:1018E800F3000030F2005908F9005808F8005708CA
:1018F800F7005608F60087314A278C317508200012
:10190800D9007408D8007308D7007208D60059089F
:10191800BF005808BE005708BD005608BC008E31ED
:10192800E3268C310800F701F801730872040319E3
:101938009E2C9F2CD52CF9010314F90DAD2C0130E8
:10194800F235F30D890BA42C0130F6007608F9075F
:10195800AD2CF31FB02CB12CA32CB32CB32C01301D
:10196800F735F80D890BB42C73087502031DBE2CCE
:1019780072087402031CC12CC22CC82C7208F40211
:101988007308F53B7714C82C0130F336F20C890B39
:10199800C92C0130F902031DD22CD32CB32CD52C21
:1019A800D52C7808F301F3077708F201F207DC2C4D
:1019B800080075087404730472040319E42CE52CF8
:1019C800262D2000A1010314A10DF62C0130F235BB
:1019D800F30DF40DF50D890BEB2C0130A000200858
:1019E800A107F62CF51FF92CFA2CEA2CFC2CFC2C60
:1019F80075087902031D0A2D74087802031D0A2D43
:101A080073087702031D0A2D72087602031C0D2D38
:101A18000E2D172D7208F6027308F73B7408F83B71
:101A28007508F93B172D0130F536F40CF30CF20C60
:101A3800890B182D0130A102031D232D242DFC2C08
:101A4800262D262D7908F5007808F4007708F3008C
:101A58007608F2002F2D08003B302000A100210855
:101A6800F6002530A2002208F7000630A30023085C
:101A7800F80068308C310F248D318B1320006608F4
:101A88002100C701C707200065082100C601C60755
:101A98008B1720002608A100A2012508A300A40195
:101AA8002308A400A301210823042100C00020006A
:101AB800220824042100C10020002808A100A20156
:101AC8002708A300A4012308A400A30121082304D4
:101AD8002100C2002000220824042100C3002000A5
:101AE8002A08A100A2012908A300A4012308A40030
:101AF800A301210823042100C40020002208240493
:101B08002100C5000800E03021009E00C2302200FC
:101B180097007D3021009D0005302000D8000F304F
:101B2800D700F430D600D60B972DD70B972DD80BAE
:101B3800972D21009D14A02D9D18A32DA42DA02D17
:101B4800A52D1C082000DE01DE0721001B0820004F
:101B5800DD01DD072C30F5008430F6008A3185225E
:101B68008D3120005E085D04031DBB2DBC2DC42DE6
:101B78004E30F5008430F6008A3185228D31EB2D08
:101B880020005D08F2005E08F300F401F501003062
:101B9800F9000330F8003330F7003330F6008731AE
:101BA8004A278D3175082000DC007408DB007308B3
:101BB800DA007208D9005C08BF005B08BE005A084A
:101BC800BD005908BC008E31E3268D31EB2D4A301B
:101BD800F5008430F6008A3185228D3121009D017F
:101BE8002200970108001930F8007808F6000F3035
:101BF800F9007908F70068308A316C228D311B3082
:101C0800F8007808F6000830F9007908F70068301D
:101C18008A316C228D311C30F8007808F6001830B3
:101C2800F9007908F70068308A316C228D3120007C
:101C3800A301A4011F2E20002308013E8400833045
:101C48000318013E85000008F8007808A500013057
:101C5800A3070030A43D2508FF3A031D342E352E76
:101C6800372E412E412E2508F8007808F600F70196
:101C780068308A316C228D311F2E6B30F80078085D
:101C8800F6000230F9007908F70068308A316C22D2
:101C98008D316C30F8007808F600F70168308A3129
:101CA8006C228D313830F8007808F600F7010314FB
:101CB800F70D68308A316C228D31C130F5008330E0
:101CC800F6008A3185228D3108002000A8002108FD
:101CD800A601A6072008A501A507722E2308F3016F
:101CE800F3072208F201F2072608F501F50725088F
:101CF800F401F4078C3197248E3173082000A60173
:101D0800A6077208A501A5070130A4002408A807A2
:101D180026082504031D912E922E722E932E280834
:101D28008600870181010130A8029A2E2308F30159
:101D3800F3072208F201F2072108F501F507200848
:101D4800F401F4078B31D1238E3172082000A400EE
:101D58002408A7002308F301F3072208F201F20779
:101D68002108F501F5072008F401F4078C319724C0
:101D78008E3173082000A101A1077208A001A007F5
:101D88000A302702031CC92ECA2ECE2E0730A40003
:101D98002408A7073030A4002408A7072708A400B0
:101DA800280886008701240881000130A80221083C
:101DB8002004031DE02EE12E9A2EE22E08002000BA
:101DC800BF1FE72EE82EFD2E2D308A31E2228E31FC
:101DD80020003C09D2003D09D3003E09D4003F0948
:101DE800D500D20A0319D30A0319D40A0319D50A4C
:101DF800062F3F08D5003E08D4003D08D3003C0814
:101E0800D200062F0030F5000030F4000030F30057
:101E18006430F2005508F9005408F8005308F70038
:101E28005208F60087314A278E3175082000B6001F
:101E38007408B5007308B4007208B3000A30B7001C
:101E48000030B80040308B3162238E314030F500CD
:101E58000030F6008A3185228E312E308A31E22216
:101E68008E316430F2000030F30020005308F50191
:101E7800F5075208F401F4078B31D1238E3173082A
:101E88002000D101D1077208D001D00700305102DB
:101E98000A30031950020318522F532F572F30308E
:101EA8008A31E2228E3120005108A101A107500891
:101EB800A001A0070A30A2000030A30040308E31F4
:101EC80069268E314030F5000030F6008A318522CF
:101ED8008E31080000302000B7000030B600003016
:101EE800B5000030B4000030BB000030BA008030CC
:101EF800B9000030B8000030B3000030B200003044
:101F0800B1000F30B000882F3808A0003908A100B0
:101F18003A08A2003B08A3003408A4003508A5002D
:101F28003608A6003708A7000130A435A50DA60D70
:101F3800A70D890B992F2408A0072508A13D26087D
:101F4800A23D2708A33D3308AB003208AA00310898
:101F5800A9003008A8000130B0020030B13BB23B04
:101F6800B33B280ABB2FA035A10DA20DA30D890BE9
:101F7800B72F2308AF002208AE002108AD002008C3
:101F8800AC002F087502031DD32F2E087402031D01
:101F9800D32F2D087302031DD32F2C087202031CA4
:101FA800D62FD72FE82F3808B4073908B53D3A0897
:101FB800B63D3B08B73D2C08F2022D08F33B2E082E
:101FC800F43B2F08F53BE82F0130BB36BA0CB90CAF
:101FD800B80C890BE92F3B083A0439043804031D6F
:101FE800F62FF72F882FF82F3508F301F307340859
:081FF800F201F207FF2F0800BF
:020000040001F9
:080000000000000000000000F8
:04000E00E4C9FFDE64
:00000001FF
