:0400000080312728FC
:10000800803120007F08F000911001302100C907DD
:100018000030CA3D0030CB3D0030CC3D01302000DF
:10002800DB070030DC3D03305C02E83003195B027B
:10003800031C1F2820282428DB01DC017C14242829
:100048007008FF00090088018D314D2D2100B00195
:10005800F030990003309500013023008C002030E7
:1000680020008C003F3024008C001F3021008C00C1
:100078008B01843022009D00823023009E009D0168
:100088001E119F111E1233309B009C019E169D1756
:100098001D16210091121112200091121112230035
:1000A8001F121F1005302000D5000F30D400F43087
:1000B800D300D30B5D28D40B5D28D50B5D288F307A
:1000C800F2008530F3008D318E2580318D31762513
:1000D80080317C106F287C1C722873286F28742844
:1000E8005730F2008530F3008D318E2580318D3107
:1000F800212580318D31C625803182316E228031B3
:100108009D30F2008530F3008D318E2580317C10D2
:100118008D288B1321004C08B4004B08B3004A0803
:10012800B2004908B1008B177C1086314026803117
:100138002100CE1BA028A128AB284D08BD004E08E1
:10014800BE00890D893B8909BF00C000C2284D093E
:100158002000D30021004E092000D400D30A03193F
:10016800D40A53082100BD00200054082100BE0015
:10017800890D893B8909BF00C000C228D01BC5284A
:10018800C628D0284F08C1005008C200890D893BF5
:100198008909C300C400E7284F092000D3002100C3
:1001A80050092000D400D30A0319D40A53082100A7
:1001B800C100200054082100C200890D893B89092B
:1001C800C300C400E7285108B9005208BA00890DD5
:1001D800893B8909BB00BC00CC30B9070030BA3D67
:1001E8000030BB3D0030BC3DBC1BFB28FC2805296A
:1001F8003C08C8003B08C7003A08C6003908C500D3
:1002080015293909C5003A09C6003B09C7003C0948
:10021800C800C50A0319C60A0319C70A0319C80A78
:10022800152945082000D300210046082000D400E5
:10023800210047082000D500210048082000D600EA
:1002480021003D0841072000D70021003E08423D1B
:100258002000D80021003F08433D2000D90021009C
:100268004008443D2000DA005708D3075808D43D19
:100278005908D53D5A08D63D5608F4005508F300EC
:100288005408F2005308F10087316D278031710856
:100298002100B5007208B600B701B8013408200083
:1002A800A800210033082000A70021003208200000
:1002B800A600210031082000A5000A30A90000305E
:1002C800AA00A0308631DA268031A030F200003052
:1002D800F3008D318E25803109308D31162580311E
:1002E80021004D082000BA0021004E082000BB0064
:1002F800890D893B8909BC00BD008331FC2380310D
:1003080009308D311625803121004F082000BA00B0
:10031800210050082000BB00890D893B8909BC00D9
:10032800BD008331FC23803109308D3116258031A1
:10033800210051082000BA00210052082000BB000B
:10034800890D893B8909BC00BD008331FC238031BC
:1003580009308D311625803121004008F4003F080E
:10036800F3003E08F2003D08F1004008F8003F089D
:10037800F7003E08F6003D08F5008431C6248031B8
:1003880074082100C0007308BF007208BE0071081D
:10039800BD004408F4004308F3004208F200410895
:1003A800F1004408F8004308F7004208F600410845
:1003B800F5008431C624803174082100C400730814
:1003C800C3007208C2007108C1004808F400470859
:1003D800F3004608F2004508F1004808F80047080D
:1003E800F7004608F6004508F5008431C624803138
:1003F80074082100C8007308C7007208C600710895
:10040800C50045082000D300210046082000D4007C
:10041800210047082000D500210048082000D60008
:1004280021003D0841072000D70021003E08423D39
:100438002000D80021003F08433D2000D9002100BA
:100448004008443D2000DA005708D3075808D43D37
:100458005908D53D5A08D63D56082100B800200055
:1004680055082100B700200054082100B6002000DC
:1004780053082100B5003808F4003708F30036089F
:10048800F2003508F10087316D27803171082100AD
:10049800B5007208B600B701B80138082000BD00E1
:1004A800210037082000BC00210036082000BB00CE
:1004B800210035082000BA008331FC2380319A30AE
:1004C800F2008530F3008D318E2580318D288D28FE
:1004D800803127281930FA007A08F5000730FB0028
:1004E8007B08F60068308D315F2582311A30FA00BA
:1004F8007A08F500F60168308D315F2582311B30AE
:10050800FA007A08F5000830FB007B08F60068302E
:100518008D315F2582311C30FA007A08F5001830D9
:10052800FB007B08F60068308D315F2582311D3075
:10053800FA007A08F500F60168308D315F258231BE
:100548001E30FA007A08F500F60168308D315F2513
:1005580082311F30FA007A08F500F60168308D31D3
:100568005F2582312030FA007A08F500F6016830FC
:100578008D315F2582312130FA007A08F500F601C5
:1005880068308D315F2582312230FA007A08F50013
:10059800F60168308D315F2582312330FA007A0800
:1005A800F500F60168308D315F2582312430FA007C
:1005B8007A08F500F60168308D315F2582312530E3
:1005C800FA007A08F500F60168308D315F2582312E
:1005D8002630FA007A08F500F60168308D315F257B
:1005E80082312730FA007A08F500F60168308D313B
:1005F8005F2582312830FA007A08F500F601683064
:100608008D315F2582312930FA007A08F500F6012C
:1006180068308D315F2582312A30FA007A08F5007A
:10062800F60168308D315F2582312B30FA007A0867
:10063800F500F60168308D315F2582312C30FA00E3
:100648007A08F500F60168308D315F2582312D304A
:10065800FA007A08F500F60168308D315F2582319D
:100668002E30FA007A08F500F60168308D315F25E2
:1006780082312F30FA007A08F500F60168308D31A2
:100688005F2582313030FA007A08F500F6016830CB
:100698008D315F2582313130FA007A08F500F60194
:1006A80068308D315F2582313230FA007A08F500E2
:1006B800F60168308D315F2582313330FA007A08CF
:1006C800F500F60168308D315F2582313430FA004B
:1006D8007A08F500F60168308D315F2582313530B2
:1006E800FA007A08F500F60168308D315F2582310D
:1006F8003730FA007A08F500F60168308D315F2549
:1007080082313830FA007A08F500F60168308D3108
:100718005F2582316330FA007A08F500F601683007
:100728008D315F2582316430FA007A08F500F601D0
:1007380068308D315F2582316530FA007A08F5001E
:10074800F60168308D315F2582316630FA007A080B
:10075800F500F60168308D315F2582316730FA0087
:100768007A08F500F60168308D315F2582316830EE
:10077800FA007A08F500F60168308D315F2582317C
:100788006930FA007A08F500F60168308D315F2586
:1007980082316A30FA007A08F500F60168308D3146
:1007A8005F2582316B30FA007A08F5000230FB00D1
:1007B8007B08F60068308D315F2582316C30FA0095
:1007C8007A08F500F60168308D315F258231743082
:1007D800FA007A08F500F60168308D315F2582311C
:1007E8007430F2008530F3008D318E258231080097
:1007F8000030F4000030F3000630F2004030F10021
:1008080020003D08F8003C08F7003B08F6003A08CD
:10081800F5008431C624833174082000BD007308B4
:10082800BC007208BB007108BA000030F400003048
:10083800F3008030F2000030F1003D08F8003C0879
:10084800F7003B08F6003A08F5008531A525833105
:1008580074082000BD007308BC007208BB00710852
:10086800BA000030F4000030F3000030F2006430C9
:10087800F1003D08F8003C08F7003B08F6003A088C
:10088800F5008531A525833174082000B40073086C
:10089800B3007208B2007108B1000A30B500003028
:1008A800B60042308D31F02583314230F2000030FD
:1008B800F3008D318E2583312E308D31162583310D
:1008C8002000BD1F682C692C892C0030F4000030F2
:1008D800F3000030F2006430F1003A09F5003B09FA
:1008E800F6003C09F7003D09F800F50A0319F60A75
:1008F8000319F70A0319F80A8F317A278331710827
:100908002000BE003E08D2009D2C6430F10000306B
:10091800F2003A08BE00BF013E08F3003F08F400A9
:100928008E31B726833171082000C0004008D200FC
:100938009D2C0A3052020318A22CA32CA82C30306C
:100948008D3116258331A82C20005208BE00BF0126
:10095800C001C1014108A8004008A7003F08A6003F
:100968003E08A5000A30A9000030AA0042308631AE
:10097800DA2683314230F2000030F3008D318E25C3
:100988008331080000302000A3000030A2000030AE
:10099800A1000030A000D02C711CD32CD42CDE2C4C
:1009A80075082000A0077608A13D7708A23D7808C1
:1009B800A33DDE2C0130F535F60DF70DF80D890B4A
:1009C800DF2C0130F436F30CF20CF10C890BE62C19
:1009D8007408730472047104031DF32CF42CD02CD6
:1009E800F52C20002308F4002208F3002108F20067
:1009F8002008F100FF2C0800003449343234433415
:100A080020345234653461346434203454346534C9
:100A1800733474342034503461347334733465342B
:100A280064342C3420344D34503455343634303416
:100A380035343034203441346434643472346534A9
:100A4800733473343A3420343034783436343834A8
:100A58000D340A3400344534523452344F3452344D
:100A68003A342034493432344334203452346534EF
:100A78006134643420345434653473347434203429
:100A88004634613469346C34653464342C3420342D
:100A9800533474346F347034703469346E3467345A
:100AA8000D340A34003454346534733474342034C7
:100AB8004D345034553436343034353430342034B1
:100AC80063346F346D346D3475346E346934633423
:100AD8006134743469346F346E340A340D3400343C
:100AE8000D340A344D3450345534363430343534BA
:100AF80030342034533465347434753470342034CD
:100B080043346F346D3470346C3465347434653404
:100B18000D340A3400344734433472346134733446
:100B280068342034563431342E3430340D340A3499
:100B38000034523465346134643479340D340A3401
:100B480000342000A101F41FAA2DAB2DBA2DF10904
:100B5800F209F309F409F10A0319F20A0319F30A6D
:100B68000319F40AA1010314A10DBA2DF81FBD2D14
:100B7800BE2DCE2DF509F609F709F809F50A03196E
:100B8800F60A0319F70A0319F80A0130F900790877
:100B9800A106CE2D0030A5000030A4000030A3002F
:100BA8000030A20074087304720471040319DD2D67
:100BB800DE2D262EA0010314A00DEE2D0130F135F7
:100BC800F20DF30DF40D890BE32D0130F9007908CE
:100BD800A007EE2DF41FF12DF22DE22DF42DF42DAA
:100BE8000130A235A30DA40DA50D890BF52D7408B0
:100BF8007802031D092E73087702031D092E720857
:100C08007602031D092E71087502031C0C2E0D2E89
:100C1800172E7108F5027208F63B7308F73B740843
:100C2800F83B2214172E0130F436F30CF20CF10CB9
:100C3800890B182E0130A002031D232E242EF42D1B
:100C4800262E262E2108031D2A2E362EA209A30998
:100C5800A409A509A20A0319A30A0319A40A0319D6
:100C6800A50A362E2508F4002408F3002308F2000C
:100C78002208F1003F2E08003B302000A000200889
:100C8800F5002430A1002108F600F7010314F70D40
:100C980068308E31252686313C302000A00020089F
:100CA800F5002530A1002108F600F7010314F70D1F
:100CB80068308E31252686313D302000A00020087E
:100CC800F5002630A1002108F600F7010314F70DFE
:100CD80068308E31252686313E302000A00020085D
:100CE800F5002730A1002108F600F7010314F70DDD
:100CF80068308E31252686313F302000A00020083C
:100D0800F5002830A1002108F600F7010314F70DBB
:100D180068308E312526863140302000A00020081A
:100D2800F5002930A1002108F600F7010314F70D9A
:100D380068308E312526863120002508A000A101C3
:100D48002408A200A3012208A300A201200822046B
:100D58002100CD002000210823042100CE0020001E
:100D68002708A000A1012608A200A3012208A300C9
:100D7800A201200822042100CF002000210823041A
:100D88002100D00020002908A000A1012808A20005
:100D9800A3012208A300A201200822042100D100F7
:100DA8002000210823042100D20008002000B00000
:100DB8002808AE002708AD002608AC002508AB00BF
:100DC800E52E2908F1002A08F200890D893B8909D6
:100DD800F300F4002E08F8002D08F7002C08F600A0
:100DE8002B08F5008F311727863174082000AE00D4
:100DF8007308AD007208AC007108AB000130FB004D
:100E08007B08B0072E082D042C042B04031D0D2F7E
:100E18000E2FE52E0F2F3008860087018101013043
:100E2800B002162F2908F1002A08F200890D893B23
:100E38008909F300F4002808F8002708F7002608B5
:100E4800F6002508F5008E31652686317108FB000D
:100E58007B082000AF002908F1002A08F200890D5C
:100E6800893B8909F300F4002808F8002708F700EF
:100E78002608F6002508F5008F31172786317408F3
:100E88002000A8007308A7007208A6007108A50032
:100E98000A302F02031C512F522F562F0730FB0008
:100EA8007B08AF073030FB007B08AF072F08FB003B
:100EB8003008860087017B0881000130B0022808CD
:100EC800270426042504031D6A2F6B2F162F6C2F69
:100ED800080000302000B7000030B6000030B50030
:100EE8000030B4000030BB000030BA008030B900D8
:100EF8000030B8000030B3000030B2000030B1005C
:100F08000F30B000872F3808A0003908A1003A0830
:100F1800A2003B08A3003408A4003508A500360841
:100F2800A6003708A7000130A435A50DA60DA70D0A
:100F3800890B982F2408A0072508A13D2608A23D63
:100F48002708A33D3308AB003208AA003108A900DE
:100F58003008A8000130B0020030B13BB23BB33BCF
:100F6800280ABA2FA035A10DA20DA30D890BB62F03
:100F78002308AF002208AE002108AD002008AC000D
:100F88002F087402031DD22F2E087302031DD22FBF
:100F98002D087202031DD22F2C087102031CD52FB5
:100FA800D62FE72F3808B4073908B53D3A08B63DBB
:100FB8003B08B73D2C08F1022D08F23B2E08F33B05
:100FC8002F08F43BE72F0130BB36BA0CB90CB80C2C
:100FD800890BE82F3B083A0439043804031DF52F20
:100FE800F62F872FF72F3508F201F2073408F101A1
:060FF800F107FE2F0800C6
:1019F8008D312D258C312400161408008D312D25AC
:101A08008D312400961408008D312D258D31240048
:101A180016150800F1008D312D258D31710824002F
:101A280091000800F100182D23009E1C1C2D1D2D6F
:101A3800182D1E2D71089A00080021008C140C1511
:101A4800283024009500960113309200C03094008D
:101A580008002F2D2F2D240016081F39031D352DA2
:101A6800362D2F2D1419392D3A2D2F2D3B2D0800E9
:101A7800F30073080907F2007208F4007108F20015
:101A88007208F4078D312D258D31740824009100DA
:101A98000800FC01DB01DC01DD012100C901CA01EC
:101AA800CB01CC01CD01CE01CF01D001D101D201B2
:101AB800200080312A28F900F701F8018C31FC2434
:101AC8008D31F10179088D313C258D3175088D31C5
:101AD8000E258D3176088D310E258D318D310825F5
:101AE8008D31080020009C017D309B009A01073051
:101AF8009C009110DB01DC0100302100CC0000309B
:101B0800CB000030CA000030C9007C1091140B17BC
:101B18008B1708009C2D7208840073088500000844
:101B28008D3116258D310130F2070030F33D9C2DA3
:101B3800720884007308850000080038031DA52D6D
:101B4800A62D8F2DA72D0800F2008D312D258D3162
:101B5800240096158D312D258D3124001108F100B2
:101B68007108F3008D312D258D317208031DBD2DAF
:101B7800C02D24009612C22D24009616161673083E
:101B8800C52D08002000A0017530FA007A08F5007C
:101B98002030FB007B08F600F7010314F70D6830CE
:101BA8008E3125268D3120002008683A031DDD2D51
:101BB800DE2DE72D0130F2008530F3008D318E25C2
:101BC8008D31EF2DEF2D2F30F2008530F3008D3160
:101BD8008E258D31EF2D08002000B9003908B70097
:101BE8003708B800B41FF92DFA2D112E2D30B70083
:101BF800390886008701370881000130B7003708A7
:101C0800B907B109B209B309B409B10A0319B20A8B
:101C18000319B30A0319B40A112E3408A8003308AB
:101C2800A7003208A6003108A5003608AA01AA07AD
:101C38003508A901A90739088631DA268D31242EFD
:101C48000800F9008C31FC248E31F10179088D31BE
:101C58003C258E3175088D310E258E318D3102254A
:101C68008E31F1010314F10D79088D313C258E3147
:101C78004C2E01308D31A8258E31F800760886006B
:101C88008701780881000130F8007808F6074C2EA3
:101C9800023077020318512E522E3D2E532E00305B
:101CA8008D31A8258E31F8007608860087017808DE
:101CB80081000130F8007808F6078D3108258E314B
:101CC8000800740873047204710403196C2E6D2ED5
:101CD800AD2EFA010314FA0D7D2E0130F135F20D07
:101CE800F30DF40D890B722E0130F9007908FA070B
:101CF8007D2EF41F802E812E712E832E832E740844
:101D08007802031D912E73087702031D912E720825
:101D18007602031D912E71087502031C942E952ED0
:101D28009E2E7108F5027208F63B7308F73B74089B
:101D3800F83B9E2E0130F436F30CF20CF10C890BB3
:101D48009F2E0130FA02031DAA2EAB2E832EAD2E34
:101D5800AD2E7808F4007708F3007608F2007508CD
:101D6800F100B62E0800F701F41FBB2EBC2EC52EBD
:101D7800F309F409F30A0319F40AF7010314F70D38
:101D8800C52EF21FC82EC92ECF2EF109F209F10A6D
:101D98000319F20ACF2E720871040319D42ED52E16
:101DA800052FF6010314F60DE32E0130F135F20D7F
:101DB800890BDA2E0130F5007508F607E32EF21FBD
:101DC800E62EE72ED92EE92EE92E72087402031D9D
:101DD800EF2E71087302031CF22EF32EF82E7108F1
:101DE800F3027208F43BF82E0130F236F10C890B3D
:101DF800F92E0130F602031D022F032FE92E052FBD
:101E0800052F7708031D092F0F2FF309F409F30A8B
:101E18000319F40A0F2F7408F201F2077308F1018D
:101E2800F107162F080000302000A3000030A200A0
:101E38000030A1000030A00074087304720471041B
:101E48000319272F282F702FA4010314A40D382F4E
:101E58000130F135F20DF30DF40D890B2D2F013002
:101E6800F9007908A407382FF41F3B2F3C2F2C2F9B
:101E78003E2F3E2F0130A035A10DA20DA30D890BD9
:101E88003F2F74087802031D532F73087702031D30
:101E9800532F72087602031D532F71087502031C15
:101EA800562F572F612F7108F5027208F63B7308F9
:101EB800F73B7408F83B2014612F0130F436F30C1B
:101EC800F20CF10C890B622F0130A402031D6D2F57
:101ED8006E2F3E2F702F702F2308F4002208F30076
:101EE8002108F2002008F100792F0800FB01F81FF3
:101EF8007E2F7F2F8E2FF509F609F709F809F50AC5
:101F08000319F60A0319F70A0319F80AFB0103145F
:101F1800FB0D8E2FF41F912F922F9E2FF109F2099E
:101F2800F309F409F10A0319F20A0319F30A031968
:101F3800F40A9E2F74087304720471040319A52F00
:101F4800A62FE62FFA010314FA0DB62F0130F1354A
:101F5800F20DF30DF40D890BAB2F0130F900790860
:101F6800FA07B62FF41FB92FBA2FAA2FBC2FBC2FF0
:101F780074087802031DCA2F73087702031DCA2F3D
:101F880072087602031DCA2F71087502031CCD2F33
:101F9800CE2FD72F7108F5027208F63B7308F73B6E
:101FA8007408F83BD72F0130F436F30CF20CF10C1F
:101FB800890BD82F0130FA02031DE32FE42FBC2F21
:101FC800E62FE62F7B08031DEA2FF62FF509F60901
:101FD800F709F809F50A0319F60A0319F70A0319A4
:101FE800F80AF62F7808F4007708F3007608F2006C
:081FF8007508F100FF2F08003D
:020000040001F9
:080000000000000000000000F8
:04000E00E4C9FFDE64
:00000001FF
